:020000040800F2
:1000000030060020C5000008CD1100084711000887
:1000100000000000000000000000000000000000E0
:100020000000000000000000000000005D12000859
:100030000000000000000000151200085F12000818
:10004000D700000800000000D7000008D700000813
:10005000D7000008D7000008D7000008D700000824
:1000600000000000D700000855010008D700000874
:10007000D7000008D7000008D700000800000000E3
:10008000D70000080000000000000000D7000008B2
:1000900000000000D7000008D7000008D7000008C3
:1000A00000000000D7000008000000002918000828
:1000B0000348854600F03CF80048004759180008FE
:1000C000300600200448804704480047FEE7FEE76A
:1000D000FEE7FEE7FEE7FEE7C1120008B1000008F8
:1000E00030B50B46014600202022012409E00D46D0
:1000F000D5409D4205D31D469540491B2546954058
:1001000040191546521E002DF1DC30BDD2B201E07F
:100110000270401C491EFBD270470022F6E710B562
:1001200013460A4604461946FFF7F0FF204610BD65
:10013000064C0125064E05E0E36807CC2B430C3C3A
:1001400098471034B442F7D3FFF7B6FF741900088C
:100150009419000810B5024800F04FF810BD0000D7
:100160002001002010B504460068054940181421FC
:10017000FFF7B6FF800020640248E06310BD000076
:10018000F8FFFDBF0000024030B5056C0124AC4013
:10019000C56B6C60046863604368102B036803D010
:1001A00099600068C26030BD9A600068C16030BD6F
:1001B000704770B50024014620314A78022A03D0E6
:1001C00004218163012416E0026813680E25AB4305
:1001D0001360026813685B085B0013600122056C02
:1001E0001346AB40C56B6B604A7000220A70416BCE
:1001F000002900D08847204670BDF0B4C16B0D685F
:1002000001680C680422066C1346B3402B420DD0E3
:1002100063070BD50B689B0602D40B6893430B60F6
:10022000016C8A40C16B4A60C16A19E00227B7407D
:1002300002462F4001232032002F15D0A70713D5E7
:100240000C68A40604D40C680A25AC430C605370F7
:10025000036C02219940C36B596000211170816ABF
:10026000002916D0F0BC08470827B7402F4210D00D
:1002700024070ED50C680E25AC430C60046C19469F
:10028000A140C46B61608363537000211170016BE6
:10029000E6E7F0BC7047000070B5040024D00220EF
:1002A000214620310D464870226811680F48A36826
:1002B0000140606826691843E36833431843636963
:1002C0001843A3691843E3691843084310602046A4
:1002D000FFF748FF0020A062E06220636063A06334
:1002E00001216970287070BD012070BD0FC0FFFF33
:1002F000F8B504468C46203001780025012909D044
:100300000126067041780027012905D007700225D3
:100310002846F8BD0220F8BD02214170A76320687D
:10032000016849084900016061462046FFF72CFF3B
:10033000E06A00282068016802D00E22114306E01E
:100340000A22114301602068016804229143016080
:100350002068016831430160DAE70000F8B5002346
:100360008DE001249C40A44622407DD04C68022CA4
:1003700001D0122C0CD1DC08A40027183C6A5D07C0
:10038000ED0E0F26AE40B4430E69AE4026433E62EA
:1003900005685E000324B4400F79A543BF07BF0F73
:1003A000B7402F4307604D68012D05D0022D03D0C3
:1003B000112D01D0122D0ED18568CF68A543B7400D
:1003C0002F43876047686546AF430D79ED06ED0F13
:1003D0009D403D434560C568A5438C68B4402C43AF
:1003E000C4604C68E40049D5284CA5690126354312
:1003F000A561A4699D0834400094254CAD002F19D7
:10040000BC689D072E0F0F25B540AC430925ED06AE
:10041000A84201D100250FE01E4DA84201D10125BF
:100420000AE01D4DA84201D1022505E01B4DA8425E
:1004300001D1032500E00525B5402543BD60184CDA
:1004400025684E689543F60300D515432560656819
:100450004E689543B60300D515436560A5684E68A0
:100460009543F60202D500E008E01543A560E56873
:100470004E689543B60200D51543E5605B1C0A68DB
:100480001446DC4000D06CE7F8BD000000100240CC
:10049000000001400004004800080048000C00482B
:1004A00000040140002A01D08161704781627047D9
:1004B00001480068704700006800002010B5014640
:1004C00060310A7A012A12D001220A7224224A7269
:1004D000026813680C24A3431360006802680423B5
:1004E0001A430260202048720020087210BD0220CA
:1004F00010BD10B5014660310A7A012A12D00122DE
:100500000A7224224A72026813680C24A3431360FF
:100510000068026808231A43026020204872002005
:10052000087210BD022010BD02480168491C01601C
:10053000704700006800002010B5064801681022CE
:1005400011430160002000F007F800F017F80020C8
:1005500010BD00000020024010B5044600F03AF93A
:100560007D21C900FFF7BCFD00F078FB0022214689
:10057000501E00F021F8002010BD000008B508480A
:100580008169012211438161816911400091C26931
:1005900001040A43C261C0690840009008BD000020
:1005A00000100240C106C90E0120884001490860C0
:1005B0007047000000E100E010B500F009FE10BD3A
:1005C000F8B505460068354CC00352D5E0690026F1
:1005D000C00007D4E16920040143E161E169014001
:1005E000012600912E480168C90510D401688215C2
:1005F00011430160FFF75CFF074604E0FFF758FF77
:10060000C01B642824D826480068C005F6D5206A97
:1006100003273F02384020D06968394081421CD00E
:10062000206A226AB843012109040A432262226A2D
:100630008A4322622062C0070FD0FFF739FF009083
:1006400008E0FFF735FF0099411A1648814201D9A9
:100650000320F8BD206A8007F3D5206A6968B84393
:1006600008432062002E04D0E16901200007814385
:10067000E1612878C00705D0206BA9688008800058
:10068000084320632878800605D5206B1021884315
:10069000E968084320630020F8BD00000010024014
:1006A0000070004088130000F8B5054644480E4627
:1006B0000068C007C00FB0420AD24148016849082B
:1006C0004900314301600068C007C00FB0425CD1EF
:1006D00028783C4C800705D56068F0218843A968DC
:1006E000084360602878C0073FD06868012813D0AD
:1006F0002168022813D08907002946DA6168890831
:10070000890001436160FFF7D3FE6968074601294C
:100710000DD0022917D024E021688903ECE7890174
:10072000EAE7FFF7C5FEC11B2748814217D860687A
:100730000007800F0128F4D117E0FFF7B9FEC11BB5
:10074000214881420BD860680007800F0228F4D14D
:100750000BE0FFF7ADFEC11B1B48814201D903200E
:10076000F8BD60680007800FF3D115480168C9071C
:10077000C90FB1420BD901684908490031430160F2
:100780000068C007C00FB04201D00120F8BD287832
:10079000400706D56068072109028843E9680843D5
:1007A000606000F02DF86168084A0906090F515C85
:1007B000C840074908600020FFF7CEFE0020F8BDC2
:1007C0000020024000100240881300005C1900085D
:1007D0006C00002001480068704700006C00002099
:1007E0000448054900684968044A4905490F515CB5
:1007F000C84070476C000020001002406C190008CF
:1008000010B512A30FCB88B06C460FC413A30FCB47
:100810000FC416494A680C20134603401448042BA1
:100820000FD0082B0DD193021B0F6C46E45CC96AF4
:1008300004AB0907090F595CD20304D5FFF750FC3C
:10084000604308B010BD0B486043FAE7020304059B
:10085000060708090A0B0C0D0E0F10100102030405
:1008600005060708090A0B0C0D0E0F1000100240B8
:1008700000127A0000093D00FEB504460078D04D14
:10088000C00747D068680007800F012807D0686854
:100890000007800F022809D16868C00306D52868C0
:1008A000800337D5606800287ED033E0012062687D
:1008B0000004012A11D08100002A01D0052A10D09D
:1008C0002A6882432A602868884328606068002874
:1008D00014D0FFF7EDFD06460CE0296801432960BE
:1008E000F4E72A680A432A60F7E7FFF7E1FD801B77
:1008F00064286FD828688003F7D50BE0FFF7D8FD90
:10090000064604E0FFF7D4FD801B6428F1D8286870
:100910008003F7D420780126800700283BDA686836
:100920000007800F07D068680007800F022809D1F0
:100930006868C00306D42868800715D5E0680128D8
:1009400032D111E0E0680028286815D030432860D3
:10095000FFF7AEFD074604E0FFF7AAFDC01B022823
:10096000C7D828688007F7D52868F8218843216907
:10097000C900084328600EE0400840002860FFF7E7
:1009800097FD074604E0FFF793FDC01B0228B0D88F
:1009900028688007F7D42078000724D5E06900286C
:1009A000686A10D0304300E008E16862FFF780FD1C
:1009B000074604E0FFF77CFDC01B022899D8686A4F
:1009C0008007F7D50FE0400840006862FFF770FD30
:1009D000074605E09DE0FFF76BFDC01B022888D8A5
:1009E000686A8007F7D4207804274007002860DA77
:1009F00000200190E869C00008D4E969B806014305
:100A0000E961E96901400120009101906D480168A8
:100A1000C90511D40168821511430160FFF748FD33
:100A2000009005E0FFF744FD0099401A642870D853
:100A300064480068C005F5D5A06801280AD00028E0
:100A400001D0052810D0286A400840002862286A92
:100A5000B84301E0286A30432862A068002812D019
:100A6000FFF726FD00900AE0286A38432862F1E784
:100A7000FFF71EFD0099411A5348814249D8286A60
:100A80008007F5D50DE0FFF713FD009006E0FFF7B6
:100A90000FFD0099411A4C4881423AD8286A8007D4
:100AA000F5D40198002804D0E969012000078143AA
:100AB000E9612078C00635D5606901280CD0401D59
:100AC000686B23D038436863686B400840006863F4
:100AD000FFF7EEFC064622E0686B38436863686BFC
:100AE00030436863FFF7E4FC064604E0FFF7E0FCF0
:100AF000801B02285BD8686B8007F7D5686BF821EC
:100B00008843A169C900084368630BE0B843686380
:100B1000F4E74CE0FFF7CCFC801B022847D8686B59
:100B20008007F7D4206A002846D069680907890F32
:100B3000022943D0012636060228286805D0B04392
:100B40002860FFF7B5FC044633E0B0432860FFF7A8
:100B5000AFFC074604E0FFF7ABFCC01B022826D819
:100B600028688001F7D4E86AE16A000900010843B7
:100B7000E862616AA06A084369683D2212049143F1
:100B800008436860286830432860FFF791FC0446FA
:100B900004E0FFF78DFC001B022808D828688001BC
:100BA000F7D509E0FFF784FC001B022801D90320D8
:100BB000FEBD28688001F5D40020FEBD0120FEBDE9
:100BC000001002400070004088130000FFB581B0A3
:100BD00016460F46040005D025466035687A002881
:100BE00003D007E0012005B0F0BD002028722046A8
:100BF00000F09EF9242068722068016849084900C5
:100C00000160204600F022FD0128ECD0606A002837
:100C100002D0204600F0F5FB206881680122920393
:100C2000114381602068816852009143394381609B
:100C3000049871050004084321680A68064B1A40AD
:100C400002430A60206801680122114301602046C6
:100C500000F03CFCC7E70000FFFF00FC094910B5AD
:100C6000401E884201D9012010BD074C606103215C
:100C7000081F00F0ADFA0020A061072020610020CD
:100C800010BD0000FFFFFF0000E000E070B502466D
:100C90002032137F012B1BD00123137702245477BA
:100CA000046865687026B5436560046865680E6809
:100CB000354365600468A5688026B543A560006873
:100CC000846849680C43846053770020107770BDB6
:100CD000022070BD70B5040005D025462035687F20
:100CE000002802D006E0012070BD002028772046B1
:100CF00000F00AF802206877211D206800F00EFB42
:100D000001206877002070BD08B500680549884259
:100D100007D105488269C1140A438261806908408D
:100D2000009008BD002C014000100240F8B50546B7
:100D300004462035287F012817D001272F7702206D
:100D40006877226890687726FF23B0431B02984398
:100D500090600868502837D00EDC202857D006DC79
:100D600000284ED0102840D14EE00220F8BD302897
:100D700050D0402839D13CE060282DD0702817D0C1
:100D800001221203801A0ED090422ED1CB684A68FD
:100D90008968206800F0FEFA2068816801229203C9
:100DA0001143816021E020688168C908C900F8E723
:100DB000CB684A688968206800F0ECFA2168886886
:100DC000B0433043886010E0CA684968206800F08A
:100DD000F4FA5021206806E0CA684968206800F0EB
:100DE000FDFA6021206800F0E0FA6F770020287794
:100DF000F8BDCA684968206800F0DFFA4021206821
:100E0000F1E700212068EEE710212068EBE72021C0
:100E10002068E8E730212068E5E77047F8B5036807
:100E20000446D96918680D072D0F07D18A0605D524
:100E3000820603D5204600F0CBFBF8BD9A68002D52
:100E400064D0D507ED0FFF26213606402E435DD036
:100E5000CE0706D0C60504D501261E62E36E3343D5
:100E6000E3668F0702230426002F06DAD70704D093
:100E700027683B62E76E3743E7664F0706D5D20720
:100E800004D022681662E26E1A43E2660A0709D5A8
:100E9000202202402A4305D0236808221A62E36E0A
:100EA0001343E366E26E002AC7D0890604D58006A4
:100EB00002D5204600F08CFBE06E000703D42068CA
:100EC000806840061CD5204600F05DFB20688168E4
:100ED000490611D58168402291438160606E0028E7
:100EE0000AD012494163606EFFF763F90028A4D06D
:100EF000606E416B8847F8BD2046FFF78EFFF8BD56
:100F00002046FFF78AFF0020E066F8BD0A0605D5F7
:100F1000020603D5204600F023FCF8BD4906FCD5A7
:100F20004006FAD5204600F03DFBF8BDDF1400086E
:100F300070B586B0064614216846FFF7EEF82149E1
:100F4000306888423BD120498A69012080030243EE
:100F50008A618A69024005924A69C00002434A6177
:100F60004969002501400B200591400200900220B4
:100F70000190032003900120049009200295694606
:100F8000C006FFF7EBF91148114C21C42560A5609C
:100F9000E56025618020656160600D48083CFFF7D1
:100FA0007BF9002801D0FFF703F97466002211468F
:100FB0001B206662FFF700FB1B20FFF7F3FA06B069
:100FC00070BD0000003801400010024030000240B7
:100FD00020010020F8B5054604466035A87A20288F
:100FE00041D100290BD0002A09D00123A0681B039E
:100FF000984206D12069002803D1C80701D00120FA
:10100000F8BD287A01282ED0012028725820616569
:1010100002530026E6662220A872616E1348886299
:10102000616E1348C862616E12480863606E1346B1
:101030004663676D21683A462431606EFFF758F9C0
:101040002E7220680168FF2201321143016020687E
:101050008168012211438160206881684022114328
:1010600081600020F8BD0220F8BD00003D15000899
:101070007D150008F314000870477047FFB5064659
:1010800004466036707A83B00D46202858D1002D72
:101090000CD00598002809D00120A16800038142E6
:1010A00007D12069002804D1E80702D0012007B049
:1010B000F0BD307A012843D0012030720020E06674
:1010C00021207072FFF7F4F9019027464037059808
:1010D00038820598788218E0788A401E78820698CF
:1010E0000090002280212046019B00F06CFB00282C
:1010F00018D10120A1680003814202D12069002893
:1011000012D02168287808856D1C788A0028E3D1E0
:1011100006980090002240212046019B00F053FBDE
:10112000002808D00320C2E728882168C005C00D28
:101130000885AD1CE9E72020707200203072B6E708
:101140000220B4E77047FEE710B586B00024009493
:101150000F4910480194029403940494059412C01A
:10116000046044608460C46004610838FFF7B2FD25
:1011700001200003009069460648FFF7D7FD04945C
:1011800004A904480594FFF781FD06B010BD0000D6
:10119000002C01407000002010B50B480949016087
:1011A0004B21C901416000218160C1600161816101
:1011B000C1610C22016242610A2341621A46FFF7B3
:1011C00005FD10BD00380140B00000207047000050
:1011D0008307FF22DB0E9A408907090E99400028F9
:1011E0000BDA0007000F0838830808489B0018181E
:1011F000C36993430B43C3617047830804489B0052
:101200001B181868904308431860704700ED00E011
:1012100000E400E07047000010B5054C20460C309B
:10122000A16800F077FB0020A060012010BD000045
:101230001400002010B500F045FB0149C87010BD36
:101240001400002010B50448C078012801D9FFF728
:10125000E3FFFFF7EFFF10BD14000020704710B54B
:10126000FFF762F910BD70B594B030216846FEF703
:1012700054FF002401250E942804139409900F9420
:1012800003200D941094009580040C94129402266F
:1012900001950A90119408960B946846FFF7ECFAB2
:1012A00007200C900E9401210D960F940CA8FFF7C7
:1012B000FBF910A810951294FFF782F914B070BDD5
:1012C000134801680122114301604168114A11402D
:1012D00041600168104A11400160016801229204D6
:1012E0009143016041683F22120491434160C16A09
:1012F00009090901C162016BFF22143291430163A4
:10130000416B49084900416300218160704700003A
:10131000001002400CB8FF08FFFFF6FE70B502682F
:10132000174B184E984201D0B04203D17024A2430B
:101330004C682243144C154D984208D0B04206D058
:10134000134EB04203D0A04201D0A84204D10326DC
:101350003602B243CE6832438026B2434E693243EE
:1013600002608A68C2620A688262984203D0A04220
:1013700001D0A84201D1096901630121416170BD19
:10138000002C01400004004000440140004801409E
:101390000020004030B58468FF252D021B02134356
:1013A000AC430B432343836030BD826870239A4370
:1013B0000A4307210A438260704730B5036A046A12
:1013C0006408640004628469F025AC43120122437E
:1013D0000A24A3430B438261036230BD30B5036A24
:1013E0001024A34303628469036A0F252D031203AB
:1013F000AC432243A024A343090119438261016243
:1014000030BD10B5818CC90707D001684A68012337
:101410005B049A43836A1A434A60818C890707D523
:1014200001684A6801231B049A43C36A1A434A604D
:10143000818C490707D501684A6801239B049A43B8
:10144000036B1A434A60818C090707D501684A6813
:101450000123DB039A43436B1A434A60818CC9061C
:1014600007D50268916801231B039943836B1943D5
:101470009160818C890607D501688A6801235B0326
:101480009A43C36B1A438A60818C490612D503685C
:101490005A6801210905046C8A4322435A60026C90
:1014A0008A4207D10268516803235B059943436C64
:1014B00019435160818C090607D501684A680123E8
:1014C000DB04806C9A4302434A6010BD0021C16670
:1014D000202260304272827201720846704710B555
:1014E000406A0022014640314A834A82FFF795FC58
:1014F00010BD70B5446A25466035687A00262128FB
:1015000008D120688068000604D552200653204682
:1015100000F055F8A87A222808D120688068400693
:1015200004D55A200653204600F02DF8E06E102115
:101530000843E0662046FFF770FC70BD10B5014619
:101540000968406A0968890615D400225A210A529E
:1015500001680A68FF2301339A430A6001688A68B8
:10156000520852008A6001688A6840239A438A6060
:1015700020226A210A54FFF77FFD10BD10B5406A92
:10158000FFF77BFD10BD01680A68FF2321339A43F2
:101590000A6001688A68520852008A60202160301F
:1015A0008172704710B501680A6840239A430A6047
:1015B000202269210A54FFF7C5FD002010BD0168F3
:1015C0000A68C0239A430A60202160304172704744
:1015D00070B50246403203466033948B9D7A0168B1
:1015E000222D05D08869082210438861022070BD31
:1015F000898C012685683603B54202D10569002D24
:101600000BD02140446D651C45652170518B491EEE
:101610000904090C518307D015E0456D214029804C
:10162000416D891C4165F1E701680A68FF24213496
:10163000A2430A6001688A68520852008A60202129
:101640009972FFF719FD002070BD0000F8B504463F
:101650002369A268E6691A436369102133430020B5
:1016600026681A4333680546394F3B4013433360BD
:1016700023685A6803263603B243E66832435A6049
:10168000236AA26926681A43B3680B273F02BB434B
:101690001343B3602F4A126B9207920F06D0012AB0
:1016A00008D0022A08D0032A07D101E0002104E073
:1016B000022102E0042100E008210122E369D203B3
:1016C000934224D100290CD002290DD0042913D033
:1016D000082917D00125010909010007400F084317
:1016E00032E0FFF77DF809E061681B4A480880187E
:1016F000FEF7F6FC80B2EEE7FFF782F86168400083
:101700004A08F4E76168012248081204EFE700295B
:1017100008D0022909D004290BD008290ED00125B0
:101720002846F8BDFFF75CF805E061680B4A4808F9
:1017300006E0FFF765F861684A0801E0616848085B
:101740008018FEF7CDFC80B22168C860E8E7000091
:10175000F369FFFF001002400024F40000127A0039
:101760006921095C212901D00220704702464032DC
:10177000518A002912D0012381681B03994202D1AA
:101780000169002915D0C16C4B1CC364006809783D
:101790000185508A401E50820020704701680A6807
:1017A00080239A430A600068016840221143016067
:1017B000F2E7C16C03680988C905C90D1985C16CB8
:1017C000891CC164E5E7FFB581B017460E460446A3
:1017D0000A9D1DE0681C1BD0002D05D0FEF768FE99
:1017E0000499401AA84213D920680168FF22A13247
:1017F0009143016020688168490849008160202088
:1018000060346072A07200202072032005B0F0BD29
:101810002068C1693046884304D00020B842D9D03E
:101820000020F3E70120F9E710B50248FFF7F6FAC8
:1018300010BD0000B000002002E008C8121F08C15F
:10184000002AFAD170477047002001E001C1121F41
:10185000002AFBD17047000008B5FEF76DFEFFF7C8
:1018600002FD16484269012189050A434261426925
:101870000A400092426949110A43426142690A40A2
:1018800000924169012211434161406910400022E8
:10189000009011460A20FEF78FFE0A20FEF782FE16
:1018A000FFF77AFCFFF750FC05490846703800F056
:1018B00013F8FFF7C7FC002008BD0000001002402D
:1018C0002001002003488168096849680069401ABE
:1018D000704700000000002010B50C4C0022A160F1
:1018E00060600B48E060322020610121092009037B
:1018F000C006FEF7D7FD6068FEF7E0FD208AE168CC
:1019000082B26068FFF766FB10BD00000000002097
:10191000FC010020F3B50F4C81B00D466068FEF766
:10192000E8FD012209271603FF0631463846FEF777
:10193000B9FDAAB2084B01996068FFF79FFB2060D0
:10194000002231463846FEF7ADFD6068FEF7B6FD71
:10195000FEBD000000000020FFFF000000000000AE
:10196000000000000102030406070809000000004F
:101970000102030494190008000000207000000018
:1019800038180008041A000870000020C005000084
:10199000481800080A0000000000000000000000D5
:1019A0000000000000000000010000000000000036
:1019B000000000006E6762000000000000000000F0
:1019C0000000000000000000000000000000000017
:1019D0000000000000000000000000000000000007
:1019E00000000000000000000000000000000000F7
:1019F00000000000000000000000000000000000E7
:041A000000127A0056
:04000005080000B13E
:00000001FF
